:10000000F4EF02F00000000000EF00F0000000003C
:0A0010000000000000000000F3D71C
:10001C000F0E0C6E470E0D6E0D2EFED70C2EFCD750
:06002C00000000001200BC
:06003200000000001200B6
:0A003800210E0D6E0D2EFED71200F2
:100042000001D2BF02D0829E01D0828ED2BD02D0E8
:10005200829C01D0828CD2BB02D0829A01D0828A49
:10006200D2B902D0829801D08288C4B102D08284EF
:1000720001D082948286DCDF8296D2B702D0829E41
:1000820001D0828ED2B502D0829C01D0828CD2B3B2
:1000920002D0829A01D0828AD2B102D0829801D053
:1000A2008288C4B102D0828401D082948286C0DF69
:0E00B2008296C4A102D0B1DF01D0BDDF1200E2
:1000C000D0C0A6F0D1C0A7F0000E0001A86FA96FA4
:0600D000010EA36F1200F7
:1000D600220E0C6E086A096A0A6A0B6A0C06D8B404
:1000E6001FD0D8900B320A3209320832033202325C
:1000F60001320032D8A0F2D70C06D8B409D0045089
:1001060008260550092206500A2207500B22EAD774
:10011600045008260550092206500A2207500B22D1
:020126001200C5
:0E0128000001C491D0C0D2F088DFC481120063
:1001360010D0800E0001CB6F1AD0C00ECB6F17D037
:10014600940ECB6F14D0D40ECB6F11D0800ECB6F24
:100156000ED00001CB51010AECE0CB51020AEDE0D2
:10016600CB51030AEDE0CB51040AEDE0EFD7CC0505
:10017600006ECB51002600C0CBF000C0D2F05EDF8F
:10018600C491CF6BCF51CD25E96E000ECE21EA6E1C
:10019600EE520BE0CF51CD25E96E000ECE21EA6E70
:0E01A600EECFD0F0BEDFCF2BEDD7C48112001C
:1001B4000001A35305E1010ED06F000ED16F7EDF65
:1001C400A6C000F0A7C001F0A8C002F0A9C003F0C7
:1001D4006D0E046E4E0E056EC60E066E410E076E53
:1001E40078DF390E0024056E300E0120066E000EF5
:1001F4000220076E000E0320086E07C000F008C03E
:1002040001F0000E08BEFF0E026E036EFF0E001614
:100214007F0E0116000E0216031600C0A6F001C0E0
:0C022400A7F002C0A8F003C0A9F012006F
:100230000001C96BCA6B800ECA19006E800E005C8B
:1002400002E1060EC95DD8B094D0B4DF00C0C7F09B
:1002500001C0C8F0070E046E00C002F001C003F038
:10026000045005E003320232039EFF0FFAD7030E5B
:100270000214006E03C001F0000E0116010E0024EE
:10028000036E000E0120046E03C0C7F004C0C8F066
:10029000C9C000F0CAC001F000360090013600501D
:1002A000C525E16E0150C621E26E03C0E6FF04C021
:1002B000E6FF44D08188060E0B6E130E0C6EAD0E59
:1002C0000D6E0D2EFED70C2EFCD70B2EFAD700008C
:1002D000000081984BD0818A060E0B6E130E0C6EB7
:1002E000AD0E0D6E0D2EFED70C2EFCD70B2EFAD7B1
:1002F00000000000819A3AD0818C060E0B6E130E1E
:100300000C6EAD0E0D6E0D2EFED70C2EFCD70B2EE7
:10031000FAD700000000819C29D0818E060E0B6E5A
:10032000130E0C6EAD0E0D6E0D2EFED70C2EFCD7DF
:100330000B2EFAD700000000819E18D0000EC819BD
:1003400002E1010EC719B6E0000EC81902E1020E63
:10035000C719C1E0000EC81902E1030EC719CCE0AD
:10036000000EC81902E1040EC719D7E0C94BCA2B09
:0403700062D712003E
:10037400949694949498949A949C949E829682943D
:10038400829E829C829A829847DE46DE45DE828A7D
:10039400828882864CDE82963FDE828648DE8296A2
:1003A4003BDE828644DE829637DE829882863FDE9A
:1003B400829632DE82863BDE8296829A828E8286A4
:1003C40036DE829629DE829E8288828630DE82969E
:1003D400829882862CDE82961FDE828628DE8296B2
:1003E4008288828624DE829617DE829882861FDEC9
:1003F4008296828E828C828A8288828618DE829697
:080404000BDE0001C4811200AF
:10040C000900F5CFE6FF0006FBE10106F9E1120059
:10041C000001C96BCA6B800ECA19006E800E005C9D
:10042C0002E1060EC95D32E2C9C000F0CAC001F09B
:10043C000036009001360050C525E96E0150C621EA
:10044C00EA6EEECF03F0EECF04F00050C725D96E64
:10045C000150C821DA6EDECF01F0DECF02F004507D
:10046C00021802E1015003180EE0818A010ED26FCE
:10047C00E2DD010ECB6F040ECC6F2D0ECD6F000E96
:10048C00CE6F53DE10D0C94BCA2BC5D7818C010E51
:10049C00D26FD1DD010ECB6F040ECC6F6B0ECD6F16
:0804AC00000ECE6F42DE1200CB
:1004B4000001C76BC86B800EC819006E800E005C0B
:1004C40002E1060EC75DD8B08CD083A820D0C7C087
:1004D40000F0C8C001F00036009001360050C52578
:1004E400E16E0150C621E26E010EE66E000EE66E6C
:1004F4008188080E0B6E1B0E0C6E270E0D6E0D2ED2
:10050400FED70C2EFCD70B2EFAD7819867D083A682
:1005140020D0C7C000F0C8C001F0003600900136FA
:100524000050C525E16E0150C621E26E020EE66E52
:10053400000EE66E818A080E0B6E1B0E0C6E270EE3
:100544000D6E0D2EFED70C2EFCD70B2EFAD7819AEA
:1005540045D083A420D0C7C000F0C8C001F0003645
:10056400009001360050C525E16E0150C621E26EAF
:10057400030EE66E000EE66E818C080E0B6E1B0EEB
:100584000C6E270E0D6E0D2EFED70C2EFCD70B2EE7
:10059400FAD7819C23D083A220D0C7C000F0C8C062
:1005A40001F00036009001360050C525E16E01507F
:1005B400C621E26E040EE66E000EE66E818E080E13
:1005C4000B6E1B0E0C6E270E0D6E0D2EFED70C2E11
:1005D400FCD70B2EFAD7819E01D077D7C74BC82BF7
:0405E4006AD71200C0
:1005E800EAEC03F0936A010E956E8380BFDE010E7C
:1005F800D26F23DD010ECB6F040ECC6F8E0ECD6F44
:10060800000ECE6F94DD020ECB6F030ECC6F810E01
:10061800CD6F000ECE6F8BDD150E0B6E4B0E0C6E74
:10062800BE0E0D6E0D2EFED70C2EFCD70B2EFAD754
:100638000000010ED26F01DD010ECB6F020ECC6FF0
:10064800440ECD6F000ECE6F72DD020ECB6F040E1E
:10065800CC6F390ECD6F000ECE6F69DD150E0B6EA7
:100668004B0E0C6EBE0E0D6E0D2EFED70C2EFCD74B
:100678000B2EFAD70000010ED26FDFDC010ECB6F14
:10068800040ECC6F530ECD6F000ECE6F50DD150EDD
:100698000B6E4B0E0C6EBE0E0D6E0D2EFED70C2E75
:1006A800FCD70B2EFAD70000010ED26FC6DC0A0E5B
:1006B800D06F000ED16F00DD83A040D01A0E0C6EF3
:1006C800F80E0D6E0D2EFED70C2EFCD70000AC0ECA
:1006D800C56F000EC66FA8DD010ECB6F030ECC6F81
:1006E8005E0ECD6F000ECE6F22DD020ECB6F040EB4
:1006F800CC6F760ECD6F000ECE6F19DD0B0E0B6E24
:10070800260E0C6E5D0E0D6E0D2EFED70C2EFCD730
:100718000B2EFAD700000000B80EC56F000EC66F8A
:10072800A4C0C7F0A5C0C8F0C1DEAC0EC56F000EEE
:10073800C66FB80EC76F000EC86F6CDEBDD7FFD787
:1007D40010EE15F08C0E006E010E016E480EF66ED2
:0E07E400070EF76E000EF86E06EC02F0120023
:08074800AB00A100A200AA0011
:08075000AA00AB00A100A20009
:08075800A100A200AA00AB0001
:0C07600047414D45204F564552212100D5
:0B076C004341524546554C4C592100BA
:0F077700574154434820544845204C45445300B3
:0B078600474F4F44204C55434B2100CF
:0D07910054525920544F20475545535300F2
:0B079E0057454C4C20444F4E452100B5
:0B07A900544845204F524445522100A7
:0D07B4004D454D4F52592047414D45210004
:0B07C10057454C434F4D4520544F005E
:0807CC00A200AA00AB00A1008D
:020000040030CA
:0D000100021F1EFF8381FF03C003E00340C8
:00000001FF
